:020000040800F2
:100000000050002021020008270200082B020008EF
:100010009D020008A1020008E9020008000000009B
:100020000000000000000000000000003103000894
:1000300035030008000000003903000875110008AE
:100040004D0300084D0300084D0300084D03000850
:100050004D0300084D0300086D12000891120008BE
:10006000B5120008D9120008FD120008711100082D
:100070004D0300084D0300084D0300084D03000820
:100080004D0300084D0300084D0300084D03000810
:100090004D0300084D0300084D0300084D03000800
:1000A0004D030008951500084D0300084D03000896
:1000B000D11500080D160008491600084D03000868
:1000C0004D0300084D0300084D0300084D030008D0
:1000D0004D0300084D0300084D0300084D030008C0
:1000E0004D0300084D0300084D0300080000000008
:1000F0000000000000000000000000000000000000
:1001000000000000000000005FF808F100B583B0B7
:1001100000F0AAF9304B314A1360314A1360314B79
:10012000314A32498B4204D21168196004330432D7
:10013000F7E72A4B1A682E4B9A4200D0FEE7284B6D
:100140001A682C4B9A42F9D1234B2B4A13602B4A45
:1001500013602B4B02E000221A600433294A9342B9
:10016000F9D3254B1B6813B9244B1B6803B1FEE779
:1001700000F086F9694601A800F022F9224C234BD1
:10018000E41AA4100025AC4214DC214C214BE41AE3
:10019000A4100025AC4213DC0099019800F0D2FCB9
:1001A00005461D4C1D4BE41AA410002C0EDC2846FD
:1001B00000F0E2F8154B53F8253098470135E2E797
:1001C000144B53F8253098470135E3E7013C134BB6
:1001D00053F824309847E8E7BABADECA0000002096
:1001E000A40200200000002064200008A8020020D3
:1001F0007856341232547698A8020020B0040020B9
:10020000A8020020B4040020780300087803000846
:1002100078030008780300087803000878030008D2
:1002200008B5FFF773FF00BEFEE71EF0040F0CBF1A
:10023000EFF30880EFF309807146414A10472DE93A
:10024000F04182B004468846124B5E6B9F6B9D6AFC
:100250001B6B13F0020F03D00E4BDB6A002B0CDB81
:100260000D4800F0B5F8CDF800803B4632462946EF
:10027000204600F009F900BEFEE74BF6AB6100F046
:100280007DF90028ECD0034B4FF00042DA6202B057
:10029000BDE8F08100ED00E00420000800BEFEE7AC
:1002A0001EF0040F0CBFEFF30880EFF309807146D6
:1002B000244A10472DE9F04182B004468846084B95
:1002C0005E6B9F6B9D6A074800F082F8CDF8008056
:1002D0003B4632462946204600F0D6F800BEFEE7EF
:1002E00000ED00E0142000081EF0040F0CBFEFF337
:1002F0000880EFF309807146134A10472DE9F04159
:1003000082B004468846084B5E6B9F6B9D6A074827
:1003100000F05EF8CDF800803B4632462946204684
:1003200000F0B2F800BEFEE700ED00E0202000087B
:1003300000BEFEE700BEFEE700BEFEE7704700001D
:100340003F020008B5020008FD02000800BEFEE7FB
:100350006420000800000020A8020020642000089B
:100360000000000000000000A8020020B4040020EB
:08037000000000000000000085
:10037800FEE7000008B503460C4A12685AB10B4A5A
:100388001068033323F003030344094A934206D851
:10039800064A136008BD054A06491160EFE701F0F7
:1003A8006FF90C2303604FF0FF30F3E7AC02002035
:1003B800004C0020B404002001230360014B0B60B3
:1003C800704700BF040000200FB400B583B004AB31
:1003D80053F8042B01938021064801F083F9002883
:1003E80003DD0146034800F037F803B05DF804EB7D
:1003F80004B07047B40200202DE9F04385B00446EC
:100408000F4643560BB10E461EE0042528462146EA
:10041800ABBE0446384605B0BDE8F08314F9011BAD
:1004280004AA1A4402F8101C0133AB42F6D304AAFA
:100438001344002203F8102C4FF00408E946404604
:100448004946ABBE8046761B002EE3D03546102EBB
:1004580028BF10250023E8E708B5FFF7CDFF08BD42
:1004680008B500F0FDF8024A024B9A6008BD00BFCB
:100478000000000800ED00E008B500F019F908BD1B
:10048800F8B504460D4617461E462748FFF79CFF59
:1004980021682648FFF798FF61682548FFF794FF11
:1004A800A1682448FFF790FFE1682348FFF78CFF15
:1004B80021692248FFF788FF61692148FFF784FF17
:1004C800A1692048FFF780FFE1691F48FFF77CFF1B
:1004D8001E48FFF779FF29461D48FFF775FF1D4C99
:1004E800E16A1D48FFF770FF216B1C48FFF76CFF9E
:1004F800E16B1B48FFF768FF15F0800F0AD115F470
:10050800004F0CD11748FFF75FFF06991648FFF711
:100518005BFFF8BD39461548FFF756FFEFE7314650
:100528001348FFF751FFEDE7E81E0008F81E000822
:10053800081F0008181F0008281F0008381F000897
:10054800481F0008581F0008681F0008781F000887
:10055800841F000800ED00E0941F0008A41F000895
:10056800B41F0008E41F0008EC1F0008C41F00089F
:10057800D41F000883691A888A4201D00020704776
:100588000268033A012A03D80233836101207047C5
:100598000020704782B00023019300932C4A13680F
:1005A80043F4803313602A4B1B6803F40033009331
:1005B800019B01330193009B1BB9019BB3F5A06F0D
:1005C800F1D1234B1B6813F4003F06D0012300939D
:1005D800009B012B04D002B0704700230093F7E77B
:1005E8001C4B1A6842F010021A601A6822F00302C3
:1005F8001A601A6842F002021A60A3F580535A681A
:100608005A605A685A605A6842F480625A605A6856
:1006180022F47C125A605A6842F4E8125A601A6846
:1006280042F080721A600A4B1B6813F0007FFAD000
:10063800074B5A6822F003025A605A6842F00202D5
:100648005A60034B5B6803F00C03082BF9D1C2E72F
:10065800001002400020024008B5FFF79BFF08BDCC
:1006680008B5104B1A6842F001021A6059680E4A20
:100678000A405A601A6822F0847222F480321A60A2
:100688001A6822F480221A605A6822F4FE025A601C
:100698004FF41F029A60FFF7DFFF044B4FF0006230
:1006A8009A6008BD001002400000FFF800ED00E06D
:1006B8001F4B5B6803F00C03042B15D0082B17D0D5
:1006C8001BB11C4B1C4A1A6002E01A4B1A4A1A60EA
:1006D800174B5B68C3F30313184AD35CDAB21549A6
:1006E8000B68D3400B607047124B134A1A60EFE750
:1006F8000F4A53685268C3F38343023312F4803FAE
:100708000AD00B4A526812F4003F0BD00C4A02FB85
:1007180003F3084A1360DBE7094A02FB03F3054ABF
:100728001360D5E7044A02FB03F3024A1360CFE7DC
:10073800001002401C00002000127A000C0000206B
:1007480000093D0010B5114B1B78A3B1012000F042
:1007580011FF0F4C2378DBB20E4A42F823000E4BF0
:1007680044F620625021012000F0E0FE2378013396
:10077800DBB2237010BD084B44F6206250210120E3
:1007880000F0D4FE014B01221A70F3E7490400205F
:100798004804002080030020E908000808B5042266
:1007A8000121084600F0B8FD08BD000038B505462F
:1007B8000C46881DC0B200F0F9FD2946204600F01D
:1007C80041FD00220449284600F040FD0121204651
:1007D80000F014FD38BD00BF4D07000808B5364BC2
:1007E800984232D013D9354B984252D020D9344B45
:1007F800984257D003F57F03984218D1314B9B7923
:10080800DBB2012B13D1304B9B6998470FE003F102
:10081800764303F52023984232D003F1FF739842C0
:1008280025D003F1544303F53013984216D008BD80
:10083800A3F57F039842FAD1224B5B79DBB2012BF7
:10084800F5D1214B5B699847F1E71E4B1B78DBB26A
:10085800012BECD11C4B1B689847E8E7194B5B78D8
:10086800DBB2012BE3D1184B5B689847DFE7154BE8
:100878009B78DBB2012BDAD1134B9B689847D6E7FC
:10088800104BDB78DBB2012BD1D10F4BDB689847DB
:10089800CDE70C4B1B79DBB2012BC8D10A4B1B6986
:1008A8009847C4E7074BDB79DBB2012BBFD1064B76
:1008B800DB699847BBE700BF02BD14EB02BD12ED30
:1008C80002BD11EE3403002044030020002304E09D
:1008D800002240F823200133DBB28B42F8D3704763
:1008E80010B51C4B1A6842F20F739A4228D9194B5B
:1008F8001A6844F268239A4222D80123002007E0AC
:10090800013A012101FA02F220EA02000133DBB2C6
:10091800202B13D81A460F4951F82310B1F5FA6F56
:10092800EED30C4951F8234040F6AB118C42E7D87E
:100938005A1E012101FA02F21043E7E7FFF74EFFC2
:100948000023054A1370054A137032210148FFF746
:10095800BDFF10BD8003002049040020480400208A
:10096800034B43F82010034B01221A54704700BF71
:10097800440300203403002000BF7047084B1B7855
:1009880063B9084A13785BB201335BB2137013780A
:100998005BB2132B02DD134600221A70704700BFAA
:1009A8004B0400204F040020064B1B7823B9064B4C
:1009B8001B7813F0800F00D17047034B13221A7075
:1009C800FAE700BF4B0400204F040020014B00222F
:1009D8001A7070474B0400200B4B01221A700B4A07
:1009E8001378DBB20A49CB5CDBB20A490B70137887
:1009F8000133DBB213701378DBB2092B00D07047D8
:100A0800134600221A70FAE74B0400204E04002017
:100A1800240000204D040020044B03221A70044ACD
:100A280013880A339BB21380704700BF4B04002021
:100A38002E000020044B02221A70044A13880A3B35
:100A48009BB21380704700BF4B0400202E0000208B
:100A5800054B1B78DBB2012B00D07047034A137893
:100A68000133DBB21370F8E74B0400202D0000209F
:100A7800054B1B78DBB2012B00D07047034A137873
:100A8800013BDBB21370F8E74B0400202D00002077
:100A980008B5234B1B78DBB2012B11D0214B1B78F7
:100AA800DBB2012B0ED0204B4EF6602250210320E2
:100AB80000F03CFD01231B4A1370194A137008BD4E
:100AC80000BFFCE7032000F055FD184B1860184BD9
:100AD8001B78DBB2032B1FD0154B1B78DBB2022B24
:100AE8001AD0124B1B68B3F57A7F15D90F4B1A68C9
:100AF8004EF65F239A420FD80C4B1B6803EBC303D7
:100B0800C3EB03130B4AA2FB03129B1A02EB53031A
:100B1800C3F34F33084A1380024B00221A70C2E70E
:100B28004A0400204C04002081090008200000200D
:100B38004B04002005BB7D792E00002008B500F08D
:100B480065FC0221084600F06BFC0321022000F03E
:100B580067FC0021022000F063FC0B21022000F05A
:100B68005FFC0021012000F05BFC0121084600F039
:100B780057FC0221012000F053FC012200211046FD
:100B880000F074FC01220021022000F06FFC012219
:100B98000021032000F06AFC01220021084600F031
:100BA800BBFB01221146002000F0B6FB0122022106
:100BB800002000F0B1FB08220021012000F0ACFB6E
:100BC80001220021104600F0D7FB062000F0EEFBC2
:100BD800192000F0EBFB1C2000F0E8FBA64C234694
:100BE80000221146072000F0F7FB23460122114698
:100BF800062000F0F1FB0121002000F023FB002279
:100C08009E49104600F022FB0121002000F0F6FA70
:100C1800FFF7C4FD01210846FFF7C8FD98490420E5
:100C2800FFF79EFE97490520FFF79AFE9649002098
:100C3800FFF796FE95490120FFF792FE944903209D
:100C4800FFF78EFE93490220FFF78AFE924906209D
:100C5800FFF786FE91490720FFF782FE002000F08B
:100C68004AFA8F4A10888F490C888F4B2043188086
:100C780050884C882043588090888C8820439880DE
:100C8800D088C9880143D98012891A8104E000F00C
:100C980073F9864B00221A70844B1B78DBB2012B48
:100CA800FAD1834B1B78DBB2032BF2D801A252F89E
:100CB80023F000BF970C0008D90C0008CD0C0008E1
:100CC800D30C000800F058F9E3E700F055F9E0E725
:100CD800784B1B78DBB22D2BDBD801A252F823F01E
:100CE800770E00089B0C00089B0C00089B0C000862
:100CF8009B0C0008B90D00089B0C00089B0C000811
:100D08009B0C00089B0C0008D10D00089B0C0008E8
:100D18009B0C00089B0C00089B0C0008E90D0008C0
:100D28009B0C00089B0C00089B0C00089B0C0008FF
:100D3800A10D00089B0C00089B0C00089B0C0008E8
:100D48009B0C00089B0C00089B0C00089B0C0008DF
:100D58009B0C00089B0C00082F0E00089B0C000839
:100D68009B0C00089B0C00089B0C0008010E000857
:100D78009B0C00089B0C00089B0C00089B0C0008AF
:100D8800470E00089B0C00089B0C00089B0C0008F1
:100D98009B0C00085F0E00084FF47A724FF4FA516A
:100DA800022000F09DFB0E21434800F095F970E702
:100DB8004FF47A724FF4FA51022000F091FB1D2192
:100DC8003E4800F089F964E74FF47A724FF4FA511B
:100DD800022000F085FB1921394800F07DF958E719
:100DE8004FF47A724FF4FA51022000F079FB1C217B
:100DF800344800F071F94CE74FF47A724FF4FA5125
:100E0800022000F06DFB0E212B4800F065F94FF42D
:100E18007A724FF4FA51022000F062FB11212A483D
:100E280000F05AF935E74FF47A724FF4FA5102207C
:100E380000F056FB1E21254800F04EF929E74FF433
:100E48007A724FF4FA51022000F04AFB242120481C
:100E580000F042F91DE74FF47A724FF4FA5102207C
:100E680000F03EFB1C211B4800F036F911E700207A
:100E780000F041F90DE700BF0005FA05990A0008DE
:100E880085090008B1090008D5090008E10900082A
:100E9800210A00083D0A0008590A0008790A0008D2
:100EA8007C010020F0000020540400204A040020A7
:100EB8004B0400204D0400200802002054000020AC
:100EC8009C00002044010020300000200801002080
:100ED80088010020D0010020F8B506460D464FF4E1
:100EE800004000F008F900242BE0204F388840F437
:100EF800004000F000F9788840F4004000F0FBF86A
:100F0800B88840F4004040F0030000F0F4F8F88896
:100F180040F4004000F0EFF8388940F4004000F059
:100F2800EAF8134A13780133DBB213704FF4004028
:100F380000F0E1F82A465021022000F0D1FA0134ED
:100F4800E4B2B44211D22A465021022000F0C8FA75
:100F5800074B1A78D2B2074B1B785BB29A42C4D0BF
:100F680048F2030000F0C7F8DBE7F8BD9000002066
:100F7800500400204F04002038B5504C208840F41D
:100F8800004000F0B8F8608840F4004000F0B3F882
:100F9800A08840F4004000F0AEF8E08840F400403B
:100FA80000F0A9F8208940F4004000F0A4F8444D6E
:100FB80029880520FFF790FF424C208840F4004024
:100FC80000F099F8608840F4004000F094F8A08898
:100FD80040F4004000F08FF8E08840F4004000F052
:100FE8008AF8208940F4004000F085F8608940F4D0
:100FF800004000F080F8A08940F4004000F07BF841
:1010080029880520FFF768FF2F4C208840F400400E
:1010180000F071F8608840F4004000F06CF8A08897
:1010280040F4004000F067F84FF4004000F063F827
:10103800264C208840F4004000F05DF8608840F4B9
:10104800004000F058F8A08840F4004000F053F841
:10105800E08840F4004000F04EF829880520FFF7AA
:101068003BFF1B4C208840F4004000F044F86088A7
:1010780040F4004000F03FF8A08840F4004000F041
:101088003AF8E08840F4004000F035F8208940F450
:10109800004000F030F8608940F4004000F02BF880
:1010A800A08940F4004000F026F829880520FFF7C1
:1010B80013FF084B00221A7038BD00BF54040020EB
:1010C8002E000020F8000020D0000020D8000020CA
:1010D800E00000205004002070B506460D460024AC
:1010E80005E036F8140000F006F80134E4B2A3B2C3
:1010F800AB42F6D370BD38B505460F241DE045FA5E
:1011080004F202F001020021084600F035F901223C
:101118000221002000F030F901220821022000F00D
:10112800DFF900220221104600F026F901220821E9
:10113800022000F0D5F9013C64B2002CDFDA01226C
:101148001146002000F018F901220821022000F0C1
:10115800C7F900220121104600F00EF901220821EA
:10116800022000F0BDF938BD7047000000B583B01B
:1011780000238DF80730104B1B786BB90F4B1A689A
:1011880022F001021A601A6822F002021A60002393
:101198000B4A1360043213600A4B1B689847074BCD
:1011A8001A68C2F300428DF807201A6822F48032C8
:1011B8001A6003B05DF804FB6404002010E000E04E
:1011C80014E000E06004002030B4830800F003005D
:1011D800094A023352F8234080000F25854024EA4B
:1011E800050442F8234052F823408140214342F845
:1011F800231030BC704700BF0000014010B4104CF1
:101208002268012303FA00F002432260994209D0C0
:1012180019B102290BD010BC7047094B9A681043CA
:101228009860F8E7064BDA681043D860F3E7044B98
:101238009A6802439A60DA681043D860EBE700BF07
:101248000004014008B5FFF7BFFF08BD034B43F892
:101258002010034B43F82020704700BF680400208B
:101268007C04002008B5054B1B68054A10689847A0
:10127800044A536943F00103536108BD6804002020
:101288007C0400200004014008B5054B5B68054A52
:1012980050689847044A536943F00203536108BDF4
:1012A800680400207C0400200004014008B5054BB8
:1012B8009B68054A90689847044A536943F00403B9
:1012C800536108BD680400207C040020000401402C
:1012D80008B5054BDB68054AD0689847044A536946
:1012E80043F00803536108BD680400207C04002013
:1012F8000004014008B5054B1B69054A1069984769
:10130800044A536943F01003536108BD6804002080
:101318007C04002000040140F0B4072916D90F29E5
:1013280025D8144E56F820707B68A1F10804A50052
:101338000F24AC4023EA04037B6056F8200043687E
:10134800890002FA01F11943416010E0094D55F88E
:10135800206034688B000F21994024EA0101316034
:1013680055F82040206802FA03F101432160F0BCDF
:10137800704700BF24020020012A0BD04AB90A4B4B
:1013880053F82000C368012202FA01F123EA01019F
:10139800C1607047044B53F82000C36802FA01F19A
:1013A8001943C160704700BF240200201F2808D9D4
:1013B8003B2805D82038012303FA00F0044B1860B5
:1013C8007047012303FA00F0024B1860704700BF12
:1013D80004E100E000E100E010B40A4C23600A4C8C
:1013E8001C44240A01FA04F41443002807DBE4B27D
:1013F80000F1604000F564402401E4B2047010BCC0
:10140800704700BF0CED00E000FD05FA034B4FF4F8
:1014180080321A60043301221A60704700100240BB
:101428001F291CD801280BD010B1022810D07047F2
:101438000B480368012202FA01F119430160704761
:1014480008480368012202FA01F119430160704754
:1014580005480368012202FA01F119430160704747
:10146800141002401C1002401810024030B41B4BEC
:1014780053F8205000242C6053F82050EC6053F8A7
:1014880020502C61AC6053F82030090219604AB131
:10149800012A0ED1114B53F82020136843F0100392
:1014A800136006E00D4B53F82020136823F0100357
:1014B80013600A4B53F820100A6842F080020A6051
:1014C80053F820100A6842F004020A6053F82020FA
:1014D800D36823F00103D36030BC7047300200208A
:1014E80010B40446104B53F8203001399962DA627F
:1014F8005A6942F001025A611A6842F001021A6000
:10150800094B53F824301A6912F0010FF8D01A6801
:1015180022F001021A60044B53F82020136923F0CB
:101528000103136110BC70473002002030B40E4C28
:10153800002525540D4C44F820300D4C54F820302B
:1015480001399962DA625A6942F001025A61DA682D
:1015580042F00102DA6054F82020136843F00103D6
:10156800136030BC704700BFAC0400209C0400200E
:1015780030020020044B53F82030D86A80B25B6AEE
:101588009BB2C01A80B270473002002008B50B4BDE
:101598001B784BB90A4B1B68DA6822F00102DA6043
:1015A8001A6822F001021A60064B1B689847044B20
:1015B8001A68136923F00103136108BDAC04002005
:1015C800300200209C04002008B50B4B5B784BB917
:1015D8000A4B5B68DA6822F00102DA601A6822F0C6
:1015E80001021A60064B5B6898474FF08042136906
:1015F80023F00103136108BDAC0400203002002071
:101608009C04002008B50B4B9B784BB90A4B9B6890
:10161800DA6822F00102DA601A6822F001021A6020
:10162800064B9B689847044B9A68136923F001039B
:10163800136108BDAC040020300200209C04002087
:1016480008B50C4BDB7853B90B4AD168CB6823F04B
:101658000103CB60D268136823F001031360074BC2
:10166800DB689847044BDA68136923F001031361B8
:1016780008BD00BFAC040020300200209C040020FC
:10168800014B1868704700BF4002002030B5141E97
:1016980005469BB0184605DA8B234FF0FF302B60C8
:1016A8001BB030BD4FF40273ADF80C300CBF2346AD
:1016B80004F1FF33029305934FF6FF7300910491F1
:1016C800ADF80E3002461E9B6946284600F072F8B7
:1016D800431CBCBF8B232B60002CE1D00022009B55
:1016E8001A70DDE707B5009313460A46014603481A
:1016F8000068FFF7CBFF03B05DF804FB4002002051
:101708002DE9F0478E6882469E420C4690469946DF
:1017180037D88A8912F4906F31D002232568096975
:101728006F1A656905EB450595FBF3F509F10103AA
:101738003B449D4238BF1D46530530D5294600F02D
:1017480035FB064650B90C234FF0FF30CAF800307D
:10175800A38943F04003A381BDE8F0873A46216995
:1017680000F0B4FAA38923F4906343F08003A381C3
:1017780026613E4426604E466561ED1BA5604E45D8
:1017880000D94E4632464146206800F0AAFAA368BE
:1017980000209B1BA36023681E442660DCE72A46C2
:1017A80000F05EFB06460028E2D12169504600F0B1
:1017B800B1FAC8E72DE9F04F9DB003938B898046B5
:1017C8001D060C4616460FD50B696BB9402100F073
:1017D800EDFA2060206128B90C23C8F800304FF0DA
:1017E800FF30C7E0402363610023099320238DF86D
:1017F800293030234FF0010B8DF82A3037463D460B
:1018080015F8013B0BB1252B3ED1B7EB060A0BD0DF
:101818005346324621464046FFF772FF013000F03A
:10182800A480099B534409933B78002B00F09D80CA
:1018380000234FF0FF32CDE90523049307938DF879
:1018480053301A932F46052217F8011B4F4800F012
:101858002FFA049BD0B9D90644BF20228DF8532013
:101868001A0744BF2B228DF853202A782A2A15D02C
:101878002F4600200A25079A394611F8013B303BCC
:10188800092B4DD9B8B10FE02F46B8E73F4A3D467E
:10189800801A0BFA00F018430490D3E7039A111D3D
:1018A80012680391002A01DB079204E0524243F0D8
:1018B8000203079204933B782E2B0CD17B782A2BBA
:1018C80033D1039B02371A1D1B680392002BB8BF44
:1018D8004FF0FF3305932E4D03223978284600F048
:1018E800E7F938B14023401B03FA00F0049B0137A5
:1018F800034304933978062226487E1C8DF8281065
:1019080000F0D6F9002838D0234B13BB039B0733CC
:1019180023F0070308330393099B4B4409936DE7AE
:1019280005FB023201200F46A6E700230A251946C7
:1019380001370593384610F8012B303A092A03D9A4
:10194800002BC8D00591C6E705FB012101230746F6
:10195800F0E703AB00932246104B04A94046AFF3CF
:101968000080B0F1FF3F8146D6D1A3895B063FF5E1
:1019780036AF09981DB0BDE8F08F03AB009322463F
:10198800064B04A9404600F081F8EAE73020000839
:10199800362000083A200008000000000917000857
:1019A8002DE9F04791461F468A680B69064693421F
:1019B800B8BF1346C9F8003091F843200C46DDF84B
:1019C800208012B10133C9F800302368990642BF5C
:1019D800D9F800300233C9F80030256815F006053B
:1019E80007D104F1190AE368D9F800209B1AAB4221
:1019F80029DC94F843302268003318BF012392068B
:101A08002ED404F1430239463046C047013021D074
:101A18002368E56803F00603042B18BF0025D9F8EE
:101A280000204FF0000908BFAD1AA368226908BF5B
:101A380025EAE5759342C4BF9B1AED181A344D4543
:101A48001AD1002008E00123524639463046C047E3
:101A5800013003D14FF0FF30BDE8F0870135C2E710
:101A68003020E11881F843005A1C94F845102244AC
:101A7800023382F84310C4E7012322463946304630
:101A8800C0470130E6D009F10109D8E72DE9F04354
:101A980001F1430C0C46097E85B06E2917460646AF
:101AA80098460C9A00F0B38022D8632936D00AD819
:101AB800002900F0B980582900F0838004F142051C
:101AC80084F8421032E0642901D06929F6D12068EF
:101AD8001368050603F104012AD51B681160002B61
:101AE80003DA2D225B4284F843206F480A2239E04A
:101AF800732900F09D8008D86F2920D07029DDD186
:101B0800236843F02003236003E0752917D0782960
:101B1800D4D17823654884F8453055E0136804F13A
:101B28004205191D1B68116084F8423001238CE0BE
:101B38001B6810F0400F116018BF1BB2CFE7136885
:101B48002568181D1060280601D51B6802E0680684
:101B5800FBD51B886F2914BF0A220822524800218E
:101B680084F843106568002DA560C0F2958021684F
:101B780021F004012160002B3DD1002D40F08E8022
:101B88006546082A0BD12368DB0708D523696268F4
:101B98009A42DEBF302305F8013C05F1FF35ACEB76
:101BA80005032361CDF800803B4603AA2146304651
:101BB800FFF7F6FE01304DD14FF0FF3005B0BDE81C
:101BC800F083394884F84510136821681D1D1B6887
:101BD80015600A060BD5CA0744BF41F020012160F1
:101BE8001BB9226822F0200222601022B7E74D06B6
:101BF80048BF9BB2EFE76546B3FBF2F102FB113336
:101C0800C35C05F8013D0B460029F5D1B9E7136817
:101C18002568181D6169106028061B6801D51960C0
:101C280002E06A06FBD51980002365462361B9E7FF
:101C38001368191D11601D6862680021284600F0AC
:101C480037F808B1401B606063682361002384F89B
:101C58004330A7E723692A4639463046C047013052
:101C6800AAD023689B0713D4E068039B9842B8BFA7
:101C78001846A3E701234A4639463046C047013093
:101C88009AD00135E368039A9B1AAB42F2DCEBE782
:101C9800002504F11909F5E7002BACD1037804F10C
:101CA800420584F842306CE74120000852200008C1
:101CB80010B5C9B202449042034601D1002303E0A3
:101CC8001C7801308C42F6D1184610BD10B5431E61
:101CD8000A44914200D110BD11F8014B03F8014F9D
:101CE800F7E7884210B501EB020307D8421E994274
:101CF8000AD011F8014B02F8014FF8E78342F5D9F1
:101D08008118D21AD34200D110BD13F8014D01F841
:101D1800014DF7E738B50546002943D051F8043C92
:101D28000C1F002BB8BFE41800F0D0F81E4A136847
:101D3800104633B9636014602846BDE8384000F0A7
:101D4800C6B8A3420BD921686218934201BF1A682A
:101D58005B685218226063600460EDE713465A68B6
:101D68000AB1A242FAD919685818A0420BD12068C2
:101D78000144581882421960DED110685268014443
:101D880019605A60D8E702D90C232B60D4E7206881
:101D980021188A4201BF11685268091821606260DF
:101DA8005C60C9E738BD00BF9004002070B5CD1C49
:101DB80025F0030508350C2D38BF0C25002D0646E7
:101DC80001DBA94203D90C233360002070BD00F069
:101DD8007DF8214A1468214691B9204C23681BB923
:101DE800304600F063F820602946304600F05EF87F
:101DF800431C24D10C233046336000F068F8E4E734
:101E08000B685B1B18D40B2B0FD90B60CC18CD506B
:101E1800304600F05CF804F10B00231D20F00700A9
:101E2800C31AD3D05A42E250D0E74B688C4216BF4F
:101E3800636013600C46EBE70C464968CCE7C41CAA
:101E480024F00304A04205D0211A304600F02EF8F1
:101E58000130CFD02560DBE79004002094040020F7
:101E6800F8B5074614460E4621B9BDE8F8401146B4
:101E7800FFF79CBF22B9FFF74DFF25462846F8BD5E
:101E880000F026F8A0420FD221463846FFF78EFF11
:101E980005460028F2D031462246FFF717FF3146A3
:101EA8003846FFF737FFE9E73546E7E738B5002357
:101EB800054C054608462360FEF75CFA431C02D130
:101EC800236803B12B6038BD980400207047704721
:101ED80051F8043C181F002BBCBF0B58C0187047A2
:101EE800537461636B206672616D653A0A00000085
:101EF800205230203D2020253038580A00000000AC
:101F0800205231203D2020253038580A000000009A
:101F1800205232203D2020253038580A0000000089
:101F2800205233203D2020253038580A0000000078
:101F380020523132203D20253038580A0000000058
:101F4800204C52203D2020253038580A000000003F
:101F5800205043203D2020253038580A000000003A
:101F680020505352203D20253038580A00000000E8
:101F78004653522F4641523A0A0000002043465326
:101F880052203D2020253038580A0000204846536A
:101F980052203D2020253038580A0000204446535E
:101FA80052203D2020253038580A00002041465351
:101FB80052203D2020253038580A0000204D4D463B
:101FC8004152203D20253038580A00002042464121
:101FD80052203D2020253038580A00004D6973638F
:101FE8000A000000204C522F4558435F5245545573
:101FF800524E3D20253038580A0000005B48617277
:10200800644661756C745D0A000000005B4275737C
:102018004661756C745D0A005B557361676546615E
:10202800756C745D0A000000232D302B2000686C4D
:102038004C006566674546470030313233343536E3
:10204800373839414243444546003031323334351C
:0B20580036373839616263646566004A
:1020640078563412B0020020000000000000000086
:1020740000000000010203040607080900A24A0444
:10208400672B000014050A0F231E282D004087002B
:102094007C0012001100110012007C0000007F007F
:1020A400090009001600600000007F004900490093
:1020B4000000FFFF7F004000400000007F00490057
:1020C400490000007C0012001100110012007C0085
:1020D40000007F00090009001600600000007F0076
:1020E400040008001000200040007F000000FFFFF3
:1020F40020001000F8FF08001000FFFF7F0002001E
:1021040004000C00040002007F0000007C001200A8
:102114001100110012007C0000007F000800240060
:102124002200410000007F00490049000000FFFF39
:10213400040002003F00FFFF3200290029002600AE
:102144000E00010001000700010009000600FFFF66
:102154002600250025001E000F00080008000F00BF
:10216400090009000F00FFFF7F00090009000600B5
:10217400000041007F0041000000410022001400E3
:10218400080014002200410000007F0049004900BB
:1021940000007F004000400000002E00490049007C
:1021A400320000002E0049004900320000007F0088
:1021B4000800080008007F0000007C0012001100E5
:1021C400110012007C0000007F00090009001600C5
:1021D400600000007F004900490000000084008284
:1021E40000FF00410042FFFF01007F0001000000EA
:1021F4007F000800080008007F0000007C00120037
:102204001100110012007C0000007F00040008008F
:102214001000200040007F0000007F000800240020
:102224002200410000002E00490049003200000055
:1022340001007F00010000007F0009000900160072
:10224400600000007F004900490000007F00040096
:1022540008001000200040007F0000007F004100C3
:10226400410022001C0000001F002000010020008B
:102274001E002000010020001F0000007F00490014
:102284004900000000080140000C0140001001401A
:10229400002C014000000040000400400008004001
:1022A40044020020000000000000000000000000C4
:1022B400000000000000000000000000000000001A
:1022C400000000000000000000000000000000000A
:1022D40000000000000000000000000000000000FA
:1022E40000000000000000000000000000000000EA
:1022F40000000000000000000000000000000000DA
:0823040000000000325476983D
:040000050800010DE1
:00000001FF
